:020000022000DC
:106000000000042075E50200B5E50200B7E50200D6
:10601000B9E50200BBE50200BDE50200000000009A
:10602000000000000000000000000000A1170300B5
:10603000C1E5020000000000C1170300C5E5020031
:1060400015190300C7E50200C7E50200C7E5020015
:10605000C7E50200C7E50200C7E50200C7E5020088
:10606000C7E50200F163020091640200C7E5020087
:10607000C7E50200C7E50200C7E50200C7E5020068
:10608000C7E50200F9140300C7E50200C7E50200F6
:10609000C7E50200C7E5020025820200C7E502004D
:1060A000C7E50200C7E5020031650200D1650200C4
:1060B000C7E50200C7E50200000000000000000084
:1060C000C7E50200C7E50200C7E50200C7E5020018
:1060D000C7E50200C7E50200C7E50200412803004A
:1060E000C7E50200C7E50200C7E5020000000000A6
:1060F00000000000C7E5020000000000C7E5020044
:10610000000000000000000000000000000000008F
:10611000000000000000000000000000000000007F
:10612000000000000000000000000000000000006F
:10613000000000000000000000000000000000005F
:10614000000000000000000000000000000000004F
:10615000000000000000000000000000000000003F
:10616000000000000000000000000000000000002F
:10617000000000000000000000000000000000001F
:10618000000000000000000000000000000000000F
:1061900000000000000000000000000000000000FF
:1061A00000000000000000000000000000000000EF
:1061B00000000000000000000000000000000000DF
:1061C00000000000000000000000000000000000CF
:1061D00000000000000000000000000000000000BF
:1061E00000000000000000000000000000000000AF
:1061F000000000000000000000000000000000009F
:10620000F1EE103A43F08073E1EE103A704700BFB0
:1062100010B5054C237833B9044B13B10448AFF3E0
:1062200000800123237010BDD06200200000000018
:10623000B893030008B5034B1BB103490348AFF300
:10624000008008BD00000000D4620020B893030065
:10625000154B002B08BF134B9D46A3F5803A002138
:106260008B460F461348144A121A0FF013FA0F4BBD
:10627000002B00D098470E4B002B00D098470020F1
:10628000002104000D000D48002802D00C48AFF397
:1062900000800FF095F9200029000CF059FB0FF059
:1062A00069F900BF000008000000042000000000A1
:1062B00000000000D06200205C8F00200000000081
:1062C00000000000024B0278002143F822107047C2
:1062D000FC62002038B50D4C237803F0FF055BB15C
:1062E000012D08D10A4800F005FC0A48002101F000
:1062F000EFF90023237038BD064801F00BFA04487B
:10630000294600F091FB0123237038BD1063002063
:1063100044650020A0650020838B1E2B59D12DE9F8
:10632000F04F84692B4D94F819C094F81A9094F8A2
:106330001C80294F94F805A094F807B0234685B037
:1063400053F8090F59689A68DB686E460FC6E37EFA
:1063500049EA0C2948EA03280DF1FF340DF10F0634
:1063600014F8011F102228460CF060F83946284620
:106370000BF0E2FEB442F3D116480BF00BFF1749C5
:1063800014480BF0D9FE5146102212480CF028F8A0
:10639000134910480BF0D0FE594610220D480CF05E
:1063A0004DF810490B480BF0C7FE4946102209482A
:1063B0000CF016F80C4907480BF0BEFE41461022BF
:1063C00004480CF00DF8094805B0BDE8F04F01F0A5
:1063D00097B97047CC7B0020088A03000C8A030021
:1063E0001C8A0300248A03002C8A0300A065002075
:1063F000F0B5254D6B6883B0002B41D093F909208F
:10640000002A3FDB5109214C2031012002F01F02FC
:1064100000FA02F244F82120BFF34F8FBFF36F8FD1
:106420006868197A5A68C0684FF4803606FA01F134
:106430008B0003F5A0739BB2012400275460C2F8BF
:106440000813D750D3580193019B80476B68197A82
:1064500093F909005A688E40B8421460D460C2F8BB
:10646000046308DB094A00F01F0140098C4042F830
:1064700020405A68197A9B6901F5A87142F82130C9
:1064800003B0F0BD1846CCE7FC62002000E100E05C
:10649000F0B5254DAB6883B0002B41D093F90920AE
:1064A000002A3FDB5109214C2031012002F01F025C
:1064B00000FA02F244F82120BFF34F8FBFF36F8F31
:1064C000A868197A5A68C0684FF4803606FA01F154
:1064D0008B0003F5A0739BB2012400275460C2F81F
:1064E0000813D750D3580193019B8047AB68197AA2
:1064F00093F909005A688E40B8421460D460C2F81B
:10650000046308DB094A00F01F0140098C4042F88F
:1065100020405A68197A9B6901F5A87142F8213028
:1065200003B0F0BD1846CCE7FC62002000E100E0BB
:10653000F0B5254DEB6883B0002B41D093F90920CD
:10654000002A3FDB5109214C2031012002F01F02BB
:1065500000FA02F244F82120BFF34F8FBFF36F8F90
:10656000E868197A5A68C0684FF4803606FA01F173
:106570008B0003F5A0739BB2012400275460C2F87E
:106580000813D750D3580193019B8047EB68197AC1
:1065900093F909005A688E40B8421460D460C2F87A
:1065A000046308DB094A00F01F0140098C4042F8EF
:1065B00020405A68197A9B6901F5A87142F8213088
:1065C00003B0F0BD1846CCE7FC62002000E100E01B
:1065D000F0B5254D2B6983B0002B41D093F90920EC
:1065E000002A3FDB5109214C2031012002F01F021B
:1065F00000FA02F244F82120BFF34F8FBFF36F8FF0
:106600002869197A5A68C0684FF4803606FA01F191
:106610008B0003F5A0739BB2012400275460C2F8DD
:106620000813D750D3580193019B80472B69197ADF
:1066300093F909005A688E40B8421460D460C2F8D9
:10664000046308DB094A00F01F0140098C4042F84E
:1066500020405A68197A9B6901F5A87142F82130E7
:1066600003B0F0BD1846CCE7FC62002000E100E07A
:1066700038B53C483C4C4FF4E1310CF075F83B49DF
:1066800038480BF0A7FDD4ED057A394BE360B2EE44
:10669000047AF4EEC77AF1EE10FA46D4FCEEE77A0B
:1066A000227A94F909006368F8EE677A4FF480352E
:1066B000FCEEE77A012195400028C4ED067A1960C6
:1066C000D960C3F8045308DB2A4B00F01F024009CD
:1066D000914043F820106368227AA16902F5A872FC
:1066E00043F8221000220121234801F0A7FB23498F
:1066F000214801F035FD22484C2101F0F5FD2049EB
:10670000204800F02FF9204800F0CEF81F4920481B
:1067100000F0DCFF1E486FF04F0101F06BF8BDE8A0
:1067200038401848002100F07FB91A490D480BF095
:1067300003FD19490B480BF0D1FC184909480BF02F
:10674000FBFC94ED057ADFED167A67EE277A17EEFB
:10675000900A0EF06BFE41EC100B022101480BF089
:1067600089FDBFE7CC7B002014630020348A03003E
:10677000D562020000E100E044630020988A030033
:10678000EC6200204465002080650020196302004F
:10679000A0650020488A0300508A0300088A03008D
:1067A000CDCCCC3D08B50D200BF034FC4FF47A7005
:1067B00008F0C6FD0D200BF02DFCBDE808404FF49D
:1067C0007A7008F0BDBD00BF10B582B06FF0350320
:1067D0000093194919481A4C00230A2201F076FD4A
:1067E000184B19495B681948D3F808256478486044
:1067F00042F00302C3F80825D3F80425447222F0BE
:106800000302C3F80425D3F81025114C436022F08D
:106810000F0242F00402C3F8102504210122027085
:1068200001740C4A0C49446100230372C36002B036
:10683000BDE810400EF066BE04600020EC6200204F
:106840002860002014600020FC62002014630020F7
:106850000024744900600020C562020072DF7047A6
:1068600073DF704774DF704777DF70470022C277AD
:1068700002707047F8B50546C07F1E181D2E01DD59
:106880000020F8BD1C462E180B46671C2F541146DD
:1068900073702246B01C0EF0D5FEEB7F02341C4410
:1068A000EC770120F8BD00BFF0B589B00646202284
:1068B0001348694601F068FCF37FC2181D2A0CDDFD
:1068C000C3F11D04E4B2E2181D2A4FF00005D8BF41
:1068D000082705DD284609B0F0BD04460125092733
:1068E000F218601CF05469465770901C22460EF056
:1068F000A9FEF27F023214442846F47709B0F0BDB5
:1069000044630020C27F1C2A01DD0020704710B4C0
:1069100003469C18022098540120A1706070DA7F11
:106920000332DA775DF8044B704700BF0023C3776A
:106930000370704710B4084A084C094902620022EB
:10694000C0E90A41C0E90C225DF8044B0270C2772D
:1069500042628263704700BFFF0101002000F40023
:1069600020001E0003460846194601F0BFBC00BFC8
:10697000F0B5154605EB8503274A89B0044603EBBD
:10698000830300200E469B0011680290CDE904604D
:10699000ADF8143094F821308DF80830CB07CDE9EC
:1069A0000600039009D41D491D4BC87FE77F9881DD
:1069B00001201C6099609F801060194902AA04F1AF
:1069C0002000FFF74BFF10B1002009B0F0BD94F894
:1069D00020101448019101F0EBFB019902460120BF
:1069E000FFF742FF0028EFD194F820000121FFF7C4
:1069F00037FF0028E8D10B4801F024FC628EA68501
:106A000095424FF0010094BF521B921A628684F89F
:106A1000230009B0F0BD00BF306300208065002076
:106A20003463002044630020F0B5002361F30F03BA
:106A30002D4D044661F31F4389B00363FA212846B4
:106A400001F0BAFBE68D2949278D0868049706EB0B
:106A5000860303EB830300229B000592ADF81430FC
:106A600094F8213002928DF80830C307CDE9062250
:106A700003920BD41E4BE27F95F85B029A8005F5DA
:106A80000F7501221C609D6098810A60184902AA56
:106A900004F12000FFF7E2FE10B1002009B0F0BDC4
:106AA00094F820101048019101F082FB01990246F0
:106AB0000120FFF7D9FE0028EFD194F82000012132
:106AC000FFF7CEFE0028E8D1074801F0BBFB638E3C
:106AD000A7859E424FF0010094BF9B1BDB1A638683
:106AE00084F8230009B0F0BD446300203063002027
:106AF0003463002010B5044690F82000FFF7B2FE82
:106B000008B1002010BD84F82300024801F0AEFB5C
:106B1000012010BD4463002030B50B888D88112BF7
:106B200085B0044605D0262B33D0102B25D005B0D8
:106B300030BD436AEB40DB07F9D52E4800F06AFD13
:106B40000028F4D1636A94F82310012202FA05F5B3
:106B500023EA050363620029E9D194F82230002B6F
:106B6000E5D0238E24486386FA2101F025FBE28DCF
:106B7000218D2046FFF7FCFED9E7CB7B012BD6D138
:106B8000426A03FA05F515430023456280F8233075
:106B9000CDE70B7A012BCAD1002380F823304FF4C4
:106BA000FA71154801F008FB238E5BB1658E95B133
:106BB000A36B0BB19847658E618D2A462046FFF77F
:106BC000D7FEB4E7A36B03B19847618D002220463E
:106BD000FFF7CEFEABE7084801F048FB626B002AE6
:106BE000A5D0009503AB2946284603950BF0D8F8AD
:106BF0009DE700BFF46500204463002075DF704707
:106C000010B44FF010144FF448010022C0E90041C5
:106C1000C0E902225DF8044B704700BF014800F054
:106C20001DBB00BF14660020F8B500250D4F2E4691
:106C300001E0142D14D0A9B2384601F0EBFA013569
:106C400004460028F5D000F083F90028F1D0204652
:106C500000F082F9022804BF0136F6B2142DEAD101
:106C60003046F8BD446300200A881F2A00D07047D0
:106C700000B50B4651F8080F83B049686A4603C255
:106C80009888BDF80030ADF802306946FFF7B6FFCE
:106C900003B05DF804FB00BF51F82A2F0260496879
:106CA00041607047A1DF7047A3DF7047A4DF7047E2
:106CB00000238382704700BF806900F0E3B800BF03
:106CC000808A70472DE9F0410B88CE88382B86B03A
:106CD0000C46054606D0392B66D0362B43D006B07D
:106CE000BDE8F08100F11C07002E36D10A8A384633
:106CF000314601F087FB94F80C80B8F1010F2CD0DD
:106D0000B8F1040FEBD1A86900F0BCF801465C486B
:106D100001F080FA00F022F92A8D053883B29342FF
:106D200028BF1346002B00F09A80218AE289A869C7
:106D3000AC8A8DF80D600A44696A05918DF80C8063
:106D4000ADF81230ADF81020ADF80E4000F09AF812
:106D500003A9FFF7A9FF0028C1D0384601F06AFB5C
:106D600006B0BDE8F081806900F08CF80146444827
:106D700001F050FA00F0F2F807466EBB05F11C0670
:106D8000E289304604F1100101F03CFB2B8D2BB160
:106D9000F81EE38980B20138834255DA304601F0AB
:106DA00049FB06B0BDE8F0810B7B012B1AD0022B0A
:106DB00095D1036B002B92D090F834208F889207E6
:106DC0001FD401F11006E2893146284698476189AF
:106DD0003846FFF76BFF82E705F11C07384601F0E4
:106DE00029FBBDE7C36A002B3FF479AF90F834204C
:106DF000D10717D404F11006E28931462846984796
:106E00006DE7C989039004F1100603201A4600902B
:106E100003AB3046CDE904610AF0C2FF0028D6D1A9
:106E20002B6BD0E7E189039004F1100603201A468A
:106E3000009003AB3046CDE904610AF0B1FF0028B1
:106E40007FF44DAFEB6AD7E7A86900F01BF86A8DB5
:106E5000A98A92B2FFF726FF00289FD13FE7AA8AAE
:106E6000A869ADF80E2040F20511ADF80C10CDE97F
:106E7000043300F007F803A9FFF716FF6DE700BF22
:106E800044630020808870477FDF704786DF70474B
:106E90008FDF704790DF7047B1DF7047B5DF704715
:106EA00010B5074B03600446C06909F093F8206AE7
:106EB00009F090F8606A08B109F08CF8204610BD1E
:106EC000B08A030010B5094B03600446C06909F09D
:106ED00081F8206A09F07EF8606A08B109F07AF852
:106EE00020460BF087FD204610BD00BFB08A03008E
:106EF00070B50446154D1068A1801721C4F8130021
:106F0000256090799588E1804FF4D816D179A4F85E
:106F10001750012222742273607661731846194655
:106F2000A6609DF8105008F0B7FA2946E06128469F
:106F300008F0B2FA00234FF6FF722062C4E90A3368
:106F4000E28163746362A374204670BDB08A03005B
:106F5000007C7047407C7047407B7047C08870471A
:106F6000008970472DE9F04186B004ACB0F8048088
:106F700016460D4620464FF4285100F0F3FCCDE9AB
:106F800000564FF6FF77012094E80C004146CDE90A
:106F90000207034800F0BAF906B0BDE8F08100BF6F
:106FA00044630020C2898188407B01F089BA00BF18
:106FB00070B50B88113B96B00C460546462B77D82A
:106FC000DFE813F08400870047008A00760076002F
:106FD00076007600A100B00076007600760076009C
:106FE00076007600BC00C400CA00D00076007600AF
:106FF00076007600760076007600760076007600E1
:1070000076007600760076007600760076007600D0
:10701000760076007600D3007600020176007600D6
:1070200076007600760076007600760076007600B0
:1070300076007600760076007600760076007600A0
:10704000760076007600D600DD007600E30078005A
:10705000F20009F0E1FE01284FF0500000F0D78067
:1070600008F088F9E86218B3502200210EF012FBF4
:1070700071496C7BEB6A086800906A46012C0C79B8
:1070800014714FF000014FF6FF7003F11C040293DE
:1070900003F13803CDE90643E88118BF0A46A88802
:1070A000059102ABCDE90311CDE90811FFF7ECFE24
:1070B00016B070BD8B79002BFAD1406AAB740028F2
:1070C000F6D01A46194608F019FAF1E700230374BE
:1070D000EEE74B890381EBE75022002102A80EF076
:1070E000D9FA218A687B02AA01F006FA0346002831
:1070F0007BD00023A88802A910AAFFF7C7FEBDF81D
:107100001A30EB81D4E70B7A002B00F08380EC6A15
:1071100009F082FE0128204676D008F03DF90023D0
:10712000EB62C5E70B7A112B65D1A86A0028BFD0A6
:1071300000231A46194608F0E1F9B9E7002302A92D
:107140008088ADF80830FFF7A3FEB1E70B7A002B7B
:10715000AED14B7A0373ABE7002211468088FFF76C
:1071600099FEA5E70B894381A2E74B89C3809FE77E
:1071700000231A4619468088FFF78EFE98E7406A7A
:107180000123AB740028D3D192E7417B2B4801F057
:1071900039F8E3880146994228BF194689B2A88880
:1071A000E980FFF77BFE83E78B79002B80D00026F8
:1071B00000231A461946E86908F0A0F90136A279B9
:1071C000F3B29A42F4D873E78B7A002B3FF470AF96
:1071D000002600231A461946286A08F08FF901365E
:1071E000A27AF3B29A42F4D862E7A8881A461946FE
:1071F000FFF74CFE5CE7C2898188407B01F0B0F963
:1072000090B101236B7490E70EF006FA87E70EF059
:10721000FBF927E7C26A8188538AC381012343743B
:10722000407B01F039F972E7034602460146A8881F
:10723000FFF732FEE5E700BF43660020446300200D
:1072400010B50446043001F07DF8034B23600023A1
:107250002375204610BD00BF0100FFFF017D01B175
:10726000704710B50446043001F076F80123237509
:1072700010BD00BF007D70470B88322B10B504D0C5
:10728000332B17D0302B08D010BDCB88DBB1041DB9
:107290002046BDE8104001F0CDB8CB88041D002B7E
:1072A000F6D14B89002BF3D00A3120460A2201F097
:1072B000A9F8EDE7CB88002BE9D14A89002AE6D06E
:1072C00002EB420204E04A89002AE0D002EB82028B
:1072D0005200041D023292B20A31204601F092F8A7
:1072E000D6E700BFA0DF704710B5044600F5F87080
:1072F00001F028F82046F82200210EF0CBF9F82200
:10730000A01800210EF0C6F9204610BD2DE9F0436B
:1073100085B00546BDF83800ADF80C00BDF83C005E
:10732000ADF80E00E8461E48BDF8349088E80C0021
:107330000F4600F06FFF05F5F875064603E0FFF70E
:107340000FFE07F0FDFF284601F05AF804463046CC
:10735000002CF4D10121284600F0FEFF0C994A468A
:10736000284601F015F84146384603AAFFF7BAFF50
:1073700030B1284600F0FAFF204605B0BDE8F083A2
:107380004FF4FA71284601F009F820EAE074284623
:1073900000F0ECFFA4B2204605B0BDE8F08300BFCA
:1073A000446300202DE9F04F8F880D8885B0884612
:1073B00004463946864800F02DFFA5F11003012B45
:1073C000814640F2908094F854203AB30026334628
:1073D0001633502D54F823A069D0512D1AD198F8A6
:1073E0000630B8F808B0022B53D0BBF1000F11D013
:1073F00051466846FFF750FCBDF800305B4559D058
:10740000514602A8FFF748FCBDF80C305B4551D04F
:1074100094F854200136F3B29342D9D394F84C3106
:10742000002B00F0D18004F5A679002604E094F842
:107430004C310136B34220DD59F8040FFFF73CFC14
:10744000B842F4D1382D03D0392D01D0362DEED1EC
:10745000B8F80AA0BAF1000FE9D0D9F800B0584640
:10746000FFF72EFC5045E2D158464146FFF72AFC73
:1074700094F84C310136B342DEDC112D55D0352D58
:1074800004D1B8F80A30002B40F08F8005B0BDE879
:10749000F08F98F80E30062BA7D1DAF8003050465E
:1074A000DB68414698474846FFF754FDB0E7B8F817
:1074B00006B09AE7DAF800305046DB684146984754
:1074C0004846FFF747FD0028A2D0502DA0D15146D5
:1074D00002A8FFF7E1FBBDF80C305B4598D14846A8
:1074E000FFF760FD94E72378002B3FF46CAF002694
:1074F000112D33460CD004EB8303394658680368DA
:107500005B68984701362278F3B29A42F3D85AE77B
:1075100004EB83033946586803681B6898470136B3
:107520002278F3B29A42F3D84DE7D3B1002633461E
:1075300005E094F84C210136F3B29A4211D904EBDC
:107540008305D5F85001FFF7B7FBB842F1D1D5F864
:107550005001FFF7ADFB013694F84C21F3B29A428B
:10756000EDD894F8F820002A90D000252B4604EBA3
:107570008303D3F8FC008388BB420AD00135EBB209
:10758000934283D204EB8303D3F8FC008388BB428D
:10759000F4D103681B689847013594F8F820EBB2E2
:1075A0009342E4D305B0BDE8F08F04F5F874B8F861
:1075B0000C20204608F1100100F024FF204605B001
:1075C000BDE8F04F00F036BF112D7FF458AFC8E78B
:1075D0004463002075DF704778DF70477ADF7047BB
:1075E000054A034692E80300002283E80300C3E94A
:1075F00002221846704700BFB88A030008B5FFF79B
:10760000EDFF08B1002008BDFFF7E6FFB0FA80F0FB
:10761000400908BDF8B500250D4F2E4601E0142D98
:1076200014D0A9B2384600F0F5FD01350446002813
:10763000F5D0FFF78DFC0028F1D02046FFF78CFC39
:10764000012804BF0136F6B2142DEAD13046F8BD48
:10765000446300200A88102A00D07047CA7B012AA0
:107660000B46FAD10A8A0188914210B4448804D8A2
:10767000A24202D85DF8044B704701465DF8044B06
:107680009888FFF7A7BF00BF8ADF70478BDF70477E
:1076900030B40D4CC4621F25002250248584A025DF
:1076A000C0E91122C0E90F22A0F84650A0F84840D6
:1076B000006230BC8262028680F838204263C26475
:1076C000A0F85020704700BF00018000C1637047E0
:1076D0001F2310B5A0F84A1004460062838400F10D
:1076E00020014430FFF7D0FF08B1002010BD03484F
:1076F00000F0A8FD012084F82C0010BD4463002098
:1077000000F1200108B50020FFF7BEFFB0FA80F0BD
:10771000400908BD10B50446FFF7B8FF08B10020C6
:1077200010BD84F82C00024800F0A0FD012010BD1F
:10773000446300202DE9F04F8FB002AE304686E85A
:107740000C000C4600F014F9C5B2102D4FD0039E6A
:1077500007220623A16994F81C9001918DF8152049
:107760008DF81430ED080DF114080DF1160A0027FC
:10777000B9F1010F0C97CDE90677CDE90877CDE98E
:107780000A77CDF833700ED998F8000001994B466E
:107790004A7882420FD00A78D4432344013213F04E
:1077A000FF031144F4D108F10108C245E0D10020E3
:1077B0000FB0BDE8F08F11F8024B013CE4B2224655
:1077C00006A80DF03FFF0DF1180B1CB9EBE714F004
:1077D000FF04E8D058462A4631460DF025FF641BC9
:1077E000AB440028F3D101200FB0BDE8F08F032295
:1077F0000223AFE780F82E10704700BFF0B50B886A
:107800008D88103B85B00E4604460D2B2CD8DFE842
:1078100003F067072B2B2B2B2B2B2B2B2B742B2DB8
:10782000836AEB40DB071FD54C48FFF7FDF9D8B959
:10783000A36A94F82C20012606FA05F523EA05052B
:10784000A5628AB994F82D3073B11F232462A384F2
:1078500004F1200104F14400FFF716FF20B940486D
:1078600000F0F0FC84F82C6005B0F0BD90F92E20FB
:1078700091F91B309A422CDC90F8383001F108075E
:107880009BB1002502E0D5B2AB420CD9636B03EB90
:10789000C5030CCB39462046FFF74CFF94F838302F
:1078A0006A1C0028EFD09D4213D094F82F30002B93
:1078B00048D096F82430012B0BD9316A4A78FF2A38
:1078C0002FD00A78D0430344013213F0FF03114450
:1078D000F4D104F120010020FFF7D6FE05B0F0BD81
:1078E000CB7B022BC0D1836A012202FA05F52B4320
:1078F0000022836280F82C20B6E70B7A012BB3D1EB
:10790000002580F82C50164800F0B0FC226C002AAC
:10791000AAD0009503AB2946284603950AF040FA01
:10792000A2E711F8025B6A1ED2B2022A28BF022225
:1079300003A80DF087FE012DCBD0228EBDF80C30B0
:107940009A42C6D1E26B002A8ED0012300933846BA
:1079500003AB242103970AF023FA85E7046600208D
:10796000446300200122002301808270436070473D
:107970008378012B08D0426822B9012B8CBF80206C
:107980000020704780207047102070474DDF7047FF
:107990004EDF70474FDF704750DF70474BDF704757
:1079A00010DF70477CDF70477DDF704760DF704716
:1079B00069DF704761DF704766DF704767DF7047D8
:1079C000704700BF0D200AF025BB00BF30B5224C28
:1079D000224D83B0D4F808034FF0FF3108F07EF950
:1079E0000028F7D0C5B101A8FFF7D8FF0528F1D0CE
:1079F0000028F8D1019B032B1BD8012BF3D9184683
:107A000006F044FDEFE70A2B04D0092B21D00B2B05
:107A100002D1012007F0D8FA01A8FFF7BFFF05281F
:107A2000D8D00028F8D1019BA3F10902022AF3D88B
:107A3000E9E7A3F10902022AD5D80A2B04D0092BC1
:107A400005D00B2BCFD1012007F0BEFACBE70220E7
:107A5000FAE70220DEE700BF446300208DE4020065
:107A60002DE9F04F2DED028B89B009F0D5F90128F1
:107A70004FF4FA7000F0808107F07CFC0546B14EAF
:107A800005F1080308EE103A06F5587706F5007A76
:107A9000D6F804034FF0FF3108F020F90028F7D0A2
:107AA0004FF4FA730DF116012846ADF81630FFF7C2
:107AB00081FF10B10528F3D1EAE7B5F80490B9F1D8
:107AC000130F00F2378106EB8903D3F814431CB17E
:107AD00029462046FFF76CFA2B88013B1B2B5BD80D
:107AE000DFE813F018015A005A005A005A005A00F1
:107AF0005A005A005A005A005A005A005A005A00B6
:107B00005A00B5001C005A005A005A005A005A0088
:107B10005A005A005A005A005A00A300DFF838826F
:107B20004FF0000B58F8040F30B1FFF711FA18B1FD
:107B30000BF1010B5FFA8BFBB845F3D1BBF1000FE2
:107B400006D196F810331BB159460D200AF044FABD
:107B50002046FFF701FA012800F0EE80D6F8CC228B
:107B600062B10223CDF81890002195F808C0009367
:107B7000084606ABCDF81CC00AF012F909F1C4089A
:107B800006EB8803586810B103685B68984706EBFA
:107B900088080023C8F8043029465046FEF7BCFF89
:107BA00069482946FFF72AFEB6F812334B452B8861
:107BB00000F0B580102B1ED02CB32046FFF7CCF977
:107BC000012803D161482946FFF744FD2046FFF70D
:107BD000C3F902281BD05E48FFF74CFB00BB594895
:107BE0002946FFF7DFFBD6F86833002B3FF458AF88
:107BF0002846984754E7EB7B012BDDD1AB88A6F8EC
:107C00001233002CD9D151482946FFF723FD5148A2
:107C10002946FFF729F84E48FFF72CFB0028DED055
:107C20004B482946FFF728FBD9E7D6F86423002AFA
:107C3000B2D0CDF818900223002195F908C0009326
:107C4000084606ABCDF81CC00AF0AAF8A4E74FF02E
:107C50000008D6F80C03CDF80080434642460321C5
:107C60003D4C09F0B5FB54F8040F30B1FFF770F943
:107C700018B108F101085FFA88F8BC42F3D196F810
:107C800010336BB1B8F1000118BF01210D200AF0CB
:107C9000A3F996F810331BB101210D200AF09CF9CD
:107CA00009F1C40806EB8804606820B103685B68CA
:107CB000984700236360EB7B012B0BBF96F8F232F1
:107CC00096F8F83296F8F34296F8F942039330208A
:107CD0000AF080FE06EB8808039B009418EE102A39
:107CE00004464946FFF704F92046C8F80440FFF768
:107CF00033F9012832D0D6F8C822002A3FF44CAF1D
:107D0000012300210093084606ABCDF818900AF035
:107D100047F841E700214846FFF74EFE3CE7102BAD
:107D20003FF469AF112B7FF447AF4FF6FF73A6F80E
:107D3000123341E70446CFE6D6F8BC22002A7FF48E
:107D400010AF1BE744630020A0650020F46500200D
:107D5000146600200466002054660020D6F8B8227D
:107D6000002A3FF419AF0021009006AB0846CDF879
:107D700018900AF015F80FE70DF046FC05467EE670
:107D800038B50446FFF7B0FA04F50070FEF7D2FDEF
:107D900004F50F70FEF76AFD04F51770FFF778FC25
:107DA00004F52C70FFF71CFC04F53070FEF728FF7B
:107DB00004F53470FFF744FA1B481C491C4AC4F808
:107DC000F4224FF480530025C4F8E83240F2011346
:107DD000C4E9BB01A4F8F8322946A4F8FA5204F524
:107DE000457050220DF056FCC4F8FF5284F803533E
:107DF000D4E9BF304FF6FF720E49A4F812230E4AA1
:107E0000C4F80453014003F00E430A4343F04453C3
:107E1000C4E9BF320121C4E9D955C4E9C25584F887
:107E20001013204638BD00BF010A170003000101EE
:107E3000170003000000FCFC07100303F0B5BD4E63
:107E400080F8FC128DB080F8FD22044609F04EFD4A
:107E500009F054FD09F012FD3369B749039303A8F3
:107E6000FFF79EFD18B1002528460DB0F0BD01209A
:107E7000FFF78EFD0120FFF789FD0120FFF78AFD46
:107E800009A8FFF789FD099B9B0705D5AB4BD3F8E4
:107E90000435002B00F0FB800023A94A94F8ED5232
:107EA000049209A90120CDE909330B938DF82450E0
:107EB000FFF77EFD0028D6D194F8FD320B90CDE976
:107EC0000900181E18BF012094F8FC528DF82700F5
:107ED000049A8DF8263009A940208DF82550FFF727
:107EE00067FD0028BFD194F8EC120990034661F3B6
:107EF0000003CDE90A00049A8DF8243009A9A020D6
:107F0000FFF756FD0028AED1D4F8E8320A900B9066
:107F1000049A099309A9A120FFF74AFD0028A2D1DC
:107F200094F8FC32002B40F0B68094F8FD32002B20
:107F300048D00023B4F8F472049A0993022509A9E1
:107F40002320CDE90A338DF82450ADF82670FFF7D1
:107F50002FFD002887D1CDE9090094F8FD72B4F80F
:107F6000F6320B90049A8DF8245009A920208DF840
:107F70002670ADF82830FFF71BFD00287FF473AFA3
:107F80000990CDE90A0094F8F832049A8DF824504B
:107F900009A922208DF82630FFF70AFD00287FF47A
:107FA00062AFCDE9090094F8F9320B90049A8DF88C
:107FB000245009A921208DF82630FFF7F9FC00286C
:107FC0007FF451AF04A8FFF7F1FC00287FF44BAF1A
:107FD000CDE9070040F0010307A902208DF81C300D
:107FE000FFF7ECFC00287FF43EAF04F52C70FFF7A0
:107FF00005FB054600283FF436AF337D51498DF827
:1080000008300B2202A8FFF7CDFC00287FF42BAF2D
:1080100094F8FD32002B40F08880032200210120DB
:1080200007F0F8F9C4F8040300283FF41CAF05ABCF
:108030000326CDE900634449444800234FF4A0627D
:1080400008F066F932460021012007F0E3F9C4F890
:10805000080300283FF407AF06ABCDE900633C49B5
:108060003C480023C82208F053F93B4B4FF48002F0
:108070001A603A4B00930023184601224FF4807196
:1080800009F050F9C4F80C0300F0E0F9ECE6022026
:1080900006F09AFF00E70990CDE90A00B4F8EE3245
:1080A000049AADF82630012509A923208DF8245023
:1080B000FFF77EFC00287FF4D6AECDE9090094F8E6
:1080C000FC72B4F8F0320B90049A8DF8245009A990
:1080D00020208DF82670ADF82830FFF769FC0028C5
:1080E0007FF4C1AE0990CDE90A0094F8F232049A07
:1080F0008DF8245009A922208DF82630FFF758FC6E
:1081000000287FF4B0AECDE9090094F8F3320B906B
:10811000049A8DF8245009A921208DF82630FFF704
:1081200047FC00283FF401AF9DE604F53070FEF7F0
:1081300075FD72E7108B0300C179020000700240E8
:1081400000600020FC8A0300088B0300617A0200B3
:108150000C8B0300CD79020000E100E0C57902003C
:1081600000B5084B85B01B7D019108468DF80C3099
:108170000EF090F9019982B203A8FFF713FC05B045
:108180005DF804FB108B030000B583B008460DF1C9
:108190000601ADF80620FFF707FC20B99DF80600A0
:1081A00003B05DF804FB002003B05DF804FB00BFE2
:1081B00090F9FE02704700BF30B5054683B0D0F895
:1081C0000C030C4609F030F90D4AA4020146A2FB4B
:1081D000043200230C46D5F80C03009392090421C5
:1081E00009F0F6F80CB103B030BD0094D5F80C03DB
:1081F00023462246032109F0EBF803B030BD00BF4F
:10820000D34D621001290CBFB0F8EE02B0F8F402B1
:10821000704700BF13299ABF00EB8101D1F8140306
:108220000020704710B5064C0021D4F8080307F071
:10823000C9FBD4F804030021BDE8104007F0C2BB1D
:108240004463002090F8103303B9704710B582B032
:10825000D0F80C4308F04CFA002302460093204665
:10826000012109F0B5F802B010BD00BFF0B583B030
:10827000002405462346D0F80C030094224603212F
:1082800009F0A6F805F5447605F5587756F8040F79
:1082900020B1FEF75DFE08B10134E4B2BE42F5D173
:1082A00095F8103343B1211E18BF01210D2003B0F2
:1082B000BDE8F04009F090BE03B0F0BD0148FFF703
:1082C0005FBD00BF446300200020704730B452BA45
:1082D0005BBA4C2502819DF908200580416030BCC5
:1082E00043810273704700BF0180704770B5044638
:1082F00088B008460D46FEF719FB2288ADF8042029
:108300000022CDE90222CDE904226368A668207B21
:10831000069641F202518DF81C00ADF8061018685F
:1083200059689A68DB6802AC0FC428460621FEF73C
:10833000E9FA2846192301AAFF21FEF79BFA08B0A3
:1083400070BD00BF002201214270C0E9012201700E
:10835000C2818281704700BF10B50446017001B12F
:1083600010BD0A2007F098F8606010BD037810B5C2
:10837000044643B1002301226370C4E90133E38161
:10838000A381227010BD406807F024FEF2E700BF11
:10839000002381608281C381704700BF037870B57C
:1083A00004460D4693B94068144BA902A3FB013162
:1083B00001238909637007F091FC90B923780026A6
:1083C0004FF0FF3566709BB9284670BD032200212F
:1083D000012007F01FF860600028E5D14FF0FF355D
:1083E000F2E7E58923780026ADB26670002BEBD06A
:1083F000606807F0EFFD6660284670BDD34D6210DF
:108400004078704738B504468089824228BF0246CA
:10841000154619B1A0680DF015F9A089E389A26885
:1084200015FA83F3401B9BB22A44A081E381A2602A
:10843000284638BD406820B100231A46194607F087
:108440005DB87047B1DF7047B2DF704708B50F48BD
:1084500005F0A8FE0E490D4800F06EFA28B10D494E
:108460000A4800F069FA50B108BD0949074800F010
:108470007FFA0849054800F05FFA0028F4D1BDE80A
:1084800008400449014800F073BA00BFB0660020FC
:10849000388B03004C8B030070B586B00323144661
:1084A00006460D460093104603AB044A059450213E
:1084B000CDE9036509F074FC06B070BD4186020089
:1084C00030B54FF6FF739A4287B014460ED002467D
:1084D0000D4603230021009303920846054A03AB8F
:1084E000CDE9045409F05CFC07B030BD002007B0B2
:1084F00030BD00BF5587020070B5164D164EA0B0B6
:108500000C46134601280CBF3146294622466846D0
:108510001D460DF079FF114B694607A8002200F0B7
:1085200095FC07A800F02EFD18B90024204620B0C5
:1085300070BD044607A800F021FB5028F5D1024683
:10854000294607A800F0ACFB07A800F003FC204672
:1085500020B070BD7C8B0300608B0300B0660020F0
:10856000F0B54FF6FF73A3B09A4200AF5DD0314B28
:108570000C463149012818BF194607F108000DF0D3
:1085800043FF2E4B07F10801002207F1240000F001
:108590005DFC07F1240000F0F5FC6D4648B90024AD
:1085A00007F1240000F0D6FB2046AD468C37BD46CF
:1085B000F0BD07F1240000F0E1FA061E08DD07F126
:1085C000240000F0ABFB311807F1240000F088FB19
:1085D00007F1240000F0D2FA061E08DD07F124009E
:1085E00000F09CFB311807F1240000F079FB07F143
:1085F000240000F0C3FA0028D1DDC31D23F00703D7
:108600006E46ADEB030D82B2694607F124007A6035
:1086100000F046FB204669467A680323FFF712FF05
:10862000B0FA80F46409B546BAE7002420468C37D6
:10863000BD46F0BD7C8B0300608B0300B06600205C
:10864000F0B51446AFB0012804AF0D4607BF528AFB
:108650003B493C49E28D07F108000DF0D5FE3A4850
:1086600007F108016E4600F067F900284BD1364B40
:1086700007F1080107F14400012200F0E7FB07F1D0
:10868000440000F07FFC18B9AC37B546BD46F0BDDC
:10869000502107F1440000F09FFA5022214607F1D3
:1086A000440000F0D7F9002329462848FB62C7E9B7
:1086B0000933C7E90C33C7E90E333B64FFF7AAFD62
:1086C00007F124012022FEF74DFC97F8243003B374
:1086D00007F124000DF0DEFE013082B2C1B207F1D5
:1086E00044007A6000F078FA7A6807F1240107F113
:1086F000440000F0AFF907F1440000F02BFBAC3769
:10870000B546BD46F0BD07F108010F4800F088F9F5
:10871000ADE794F8491094F84D3094F84E20039149
:1087200094F84A10029194F84B10019194F84C106F
:10873000009107F1240006490DF066FEC8E700BF6E
:10874000608B03007C8B0300B06600204463002034
:10875000988B03002DE9F043A3B00C4600AF002135
:108760000323054616462046BA1DF980FFF76CFE26
:10877000FB88E84623B98C37C546BD46BDE8F08383
:108780000733DB08A8EBC3039D462046BA1D6946A4
:108790000323FFF759FEE94604460028EBD1284B96
:1087A00028493246012D18BF194607F108000DF07F
:1087B0002BFE254B07F1080107F12400012200F0F0
:1087C00045FB07F1240000F0DDFB0028D3D0214653
:1087D00007F1240000F084FA07F1240000F0CEF93C
:1087E000041E08DD07F1240000F098FA211807F1B3
:1087F000240000F075FA07F1240000F0BFF9041E10
:1088000008DD07F1240000F089FA211807F124009F
:1088100000F066FAFC8807F12400E1B200F0DCF910
:108820002246494607F1240000F014F907F124001C
:1088300000F090FA8C37C546BD46BDE8F08300BF16
:108840007C8B0300608B0300B0660020704700BF84
:1088500010B504460AF0CEF8204610BD38B50A4BD4
:1088600004460D46442240F80C3B00210CF012FF58
:108870000023A560237104F15401012006F0EEFFEE
:108880002065204638BD00BFC08B030070B504468C
:108890000E46006D4FF0FF3107F020FA257955B9EB
:1088A0008EB1A660314604F10C0005F0D5FAB0FA9D
:1088B00080F56D0925710023206D1A46194606F0D2
:1088C0001DFE284670BDA668002EF4D0EAE700BF62
:1088D00070B505464FF0FF31006D07F0FFF92B79B9
:1088E00093B1002305F10C062B71304605F0C8FB4F
:1088F000044680B10023286D1A46194606F0FEFD95
:10890000B4FA84F0400970BDA96805F10C0004F0C8
:1089100043FE0446EEE7A968304604F03DFE0446F7
:108920000028E7D1A968304605F096FA04460028E9
:10893000E0D101232B71DDE730B5044695B00D463B
:10894000006D4FF0FF3107F0C9F9294601AA04F183
:108950000C0004F0F5FB002302461946206D144676
:108960001A4606F0CBFDB4FA84F0400915B030BDCC
:108970002DE9F04F83B00B7800AF2F2B78600CBF40
:108980004C1C0C4606460D46006D4FF0FF3107F0BB
:10899000A5F906F10C084FF0000917E0ADEB030D47
:1089A00068468B4500F8019BEA4601DD0CF072FE3B
:1089B00029465A4650460CF045FE5146404603F0C3
:1089C000ADFC08B1113028D10134B54620462F2125
:1089D0000DF03AFDA0EB050B0BF108036E460021EC
:1089E000044623F007035A460028D7D129464046BB
:1089F00003F094FC60B901247A680023106D1946D5
:108A00001A4606F07BFD20460C37BD46BDE8F08FC8
:108A1000113014BF00240124EEE70024B546EBE733
:108A200038B504460D46006D4FF0FF3107F056F99A
:108A3000294604F10C0004F0DBFB00230246194632
:108A4000206D14461A4606F059FDB4FA84F0400928
:108A500038BD00BF036970B504460D46186D4FF070
:108A6000FF31164607F03AF9237D4BB10025226904
:108A70000023106D19461A4606F040FD284670BDC9
:108A80002069A1692A4633460C3003F00DFF20EA25
:108A9000E075ECE770B50369044682B0186D4FF0DD
:108AA000FF3107F01BF9267D4EBB2069A1690C3010
:108AB00004F038FB05462069A1698DF807600123A1
:108AC0000DF107020C3004F079FA00282069A16941
:108AD000C8BF9DF807602A4600F10C004FF0000364
:108AE000D8BF4FF0FF3604F0EDFA22690023106D75
:108AF00019461A4606F002FD304602B070BD4FF02E
:108B0000FF36F2E738B5036904464FF0FF31186DC0
:108B100007F0E4F8237D4BB1002522690023106D96
:108B200019461A4606F0EAFC284638BD2069A169B4
:108B30000C3004F0F9FA05462069A1690C3004F004
:108B4000F1FA2D1AE9E700BF036910B504464FF0AA
:108B5000FF31186D07F0C2F8237D43B1226900236D
:108B6000106DBDE810401A46194606F0C7BC2069D2
:108B7000A1690C3004F0FEF8F0E700BF30B50369DE
:108B8000044683B0186D4FF0FF3107F0A7F8257D3C
:108B900055B122690023106D19461A4606F0AEFC45
:108BA0004FF0FF3003B030BD2069A1690DF107021D
:108BB00001230C3004F002FA23692A4604462946B0
:108BC000186D2B4606F09AFC002CCCBF9DF80700D0
:108BD0004FF0FF3003B030BD30B50368164A5B6814
:108BE00083B093428DF807101ED1036904464FF0FD
:108BF000FF31186D07F072F8237D53B1002522690B
:108C00000023106D19461A4606F078FC284603B07A
:108C100030BD2069A1690C3001230DF1070203F07A
:108C200043FE20EAE075EAE701220DF107019847CB
:108C30000546284603B030BD558A020070B504468B
:108C40000D4608F0E9F801284FF02C0020D006F07E
:108C500091FB0146A16131B123692A4603F10C0061
:108C600003F034FD08B1002070BD012323752846B0
:108C70000DF010FC461C08F0CFF8012830460BD050
:108C800006F078FBE06129460DF0EBFB012070BD9A
:108C90000CF0BAFC0146DDE70CF0B6FCF2E700BFD1
:108CA000036970B504460D46186D4FF0FF31164646
:108CB00007F014F8237D4BB1002522690023106DC5
:108CC00019461A4606F01AFC284670BD2069A169AB
:108CD0002A4633460C3004F071F90546EDE700BF33
:108CE00038B5036904460D46186D4FF0FF3106F0A4
:108CF000F5FF237D4BB1002522690023106D194635
:108D00001A4606F0FBFB284638BD2069A1692A46B1
:108D10000C3004F0D7F9C543ED0FEDE738B5036922
:108D200004464FF0FF31186D06F0D8FF237D4BB19C
:108D3000002522690023106D19461A4606F0DEFB55
:108D4000284638BD2069A1690C3004F0EBF90546CE
:108D5000EFE700BF036970B504464FF0FF31186DAF
:108D600006F0BCFFA169D1B12069237D0C30FBB1B5
:108D700003F0D4FCA56908F04FF80128284624D058
:108D800006F00AFBE5690023A36135B108F044F859
:108D9000012828461FD006F0FFFA0023E36122696C
:108DA0000023106DBDE870401A46194606F0A6BBB8
:108DB00004F062F8A56908F02FF80128284607D0CA
:108DC00006F0EAFA0023A361E9E70CF025FCD9E7F5
:108DD0000CF022FCF6E70CF01FFCDEE7816951B3D2
:108DE00038B5037D044600690C30BBB103F096FC36
:108DF000A56908F011F8012828461DD006F0CCFA24
:108E0000E5690023A36135B108F006F8012828467A
:108E100018D006F0C1FA0023E36138BD04F02CF845
:108E2000A56907F0F9FF0128284608D006F0B4FA32
:108E30000023A36138BD70470CF0EEFBE0E70CF0B7
:108E4000EBFBF5E70CF0E8FBE5E700BFF0B5044607
:108E50000025C4E906554A482361206084F8205063
:108E60004FF47A700E46A06095B0186D6560257558
:108E70004FF0FF313546164606F030FFA36913B1B7
:108E80002046FFF7ABFF206901AA0C30294604F009
:108E900057F990B99DF80430112B3FD02946204650
:108EA000FFF7CCFE60BB22690023106D19461A46FD
:108EB00006F024FB204615B0F0BD0230F3D1012EA0
:108EC000F1D107F0A9FF01284FF038004BD006F090
:108ED00051FA0146A1610029E5D023692A4603F130
:108EE0000C0040F2031303F02DFC06460028DAD1F3
:108EF0002069A1690C300223324604F0E3F826759C
:108F00002F2128460DF0E1FA034604F1200003B1B9
:108F10005D1C294640220DF0C5FAC4E726B1012E9A
:108F2000EED140F2031700E0012707F075FF01289A
:108F30004FF0380013D006F01DFA0146A161002958
:108F4000B1D022693B4602F10C002A4603F0FAFB3D
:108F50000028A8D1012E0AD000232375D0E70CF0F9
:108F600053FB0146EAE70CF04FFB0146B2E72369E9
:108F7000A169024603F10C00022304F0A3F8EBE719
:108F8000D08B03008069003818BF0120704700BFF4
:108F90002DE9F04F85B0DDE90E4B109F81460D465F
:108FA00090461E46002F63D0B8F1000F03D0D8F8CA
:108FB0000030B34249D0D9F800002B689E422BD034
:108FC0004369B4FBF3F203FB1242BAB9BB4215D8B2
:108FD000B7FBF3F203FB127AA7EB0A0300930393A8
:108FE000436822461F4631465B46B84788B9039B13
:108FF00057469B441C44002FD6D139E00093A21A57
:10900000C5E90062D0F804A0AB683146D04700281B
:10901000CAD005B0BDE8F08F69684369A142D0D8D5
:10902000CA18A242CDD9A2EB040ABA45AB6828BF40
:10903000BA46611A524658461944BF1A54440CF0B5
:1090400001FBD344002FAFD112E0D8F80430A34283
:10905000B1D8D9F8000082691A44A242ADD9A2EB76
:10906000040ABA45D8F8081028BFBA46E31AE1E75F
:10907000002005B0BDE8F08F2DE9F04F074687B01E
:109080000D4672B30368D1F800B090469A69D1E9F1
:1090900001104AB3013A01F101098618A9EB000950
:1090A000441E4FF0010A08E014F8012F9DF8173014
:1090B0009A4223D1A6423B6814D01A6A934509EB21
:1090C000040320D20DF11702CDE90032CDF808A03B
:1090D0005B46002241463846FFF75AFF0028E3D09E
:1090E00009DB3B68A8689A69FF210CF0D3FA4FF0BE
:1090F000FF332B60002007B0BDE8F08F6FF0330026
:1091000007B0BDE8F08F034B034A044812210CF06E
:10911000FFF900BFEC8B0300188E03000C8C0300DA
:109120002DE9F04F87B0DDF840A00592002B64D008
:10913000D0F800908B46D9F81C105C1EA1F10808ED
:109140004445074651D3B4FBF8F001380CF0C6F99A
:10915000D04500F10200A4EB8003B3FBF8F560D822
:10916000BAFBF8F001380CF0B9F9861CAAEB8606B8
:10917000B6FBF8F630460CF0B1F9AAEB800006FB1E
:10918000180AB54243D9D9F82020059B4FF00409AD
:109190000DF114080BE0012B45D93A68126A93428D
:1091A00041D8012101FA04F42D1BB54230D9AC1B82
:1091B000B4FA84F495FAA5F1C4F11F04B1FA81F16F
:1091C0008C4228BF0C4693424FEA840132D2009170
:1091D000CDE90189002259463846FFF7D9FE059BA3
:1091E0000028D8D007B0BDE8F08FD04588BF13461F
:1091F000BAFBF8F00CD80025B4E711994FF0FF3214
:109200000A60129A1846136007B0BDE8F08F059BFC
:10921000119A1360129B0020C3F800A007B0BDE8AC
:10922000F08F0026ADE7064B064A07484FF48F61E2
:109230000CF06EF9054B064A034812210CF068F950
:10924000848C0300388E03000C8C0300EC8B03002D
:10925000188E03002DE9F04F89B00746149C129D2B
:109260008B4692461E46002C55D0DBF80030B342A8
:109270005CD0013340F0A18038688269B5FBF2F31D
:1092800002FB1353002B4AD1A24248D8B4FBF2F39D
:1092900002FB13430593E31A009304938468139B22
:1092A0002A463146A04700287ED1BAF1000F29D0C6
:1092B000049B3BB3139B5C1E049B04EB0309139BB1
:1092C00005F10108A8EB030807E014F8012F9DF849
:1092D0001F309A4266D14C4514D03B681A6A9642B8
:1092E00008EB040363D2012202920DF11F02CDE9C3
:1092F00000325146334600223846FFF749FE002827
:10930000E3D051DB139A049B059C11461944139139
:109310001D44002CA9D1002009B0BDE8F08FEB1A44
:10932000CBE90063DBF80030B342A2D1DBF80410D4
:10933000A9429ED83A6892690A44AA4299D9A2EBF6
:109340000508A045DBF8080028BFA046691A0844B4
:10935000424613990CF076F93868139982694544AE
:109360004144B5FBF2F302FB1353A4EB0804139141
:10937000002B7FF478AFDBF800104B1C3FF473AF89
:109380000092DBE90123D0F80880C04760B952465B
:1093900059463846FFF770FE00283FF464AF09B025
:1093A000BDE8F08F6FF0330009B0BDE8F08F064BD9
:1093B000064A074812210CF0ABF8064B064A04484F
:1093C000B7210CF0A5F800BFEC8B0300188E03004A
:1093D0000C8C0300B08C0300288E03002DE9F04FA5
:1093E0000446D2E9003091B04FF0010B0A930023FC
:1093F0000B90069104F114080DF1280905932368D8
:1094000059F8045B1B6A9D427BD210230DF1300A90
:109410000022CDE901A300922B4641462046FFF7EA
:10942000B7FD002839D1059B002B60D10D9B23F09F
:109430000043132B4FD92268D26993424BD84FF087
:10944000FF3309A810225146099304F037FE0D9B03
:1094500023F00043102B28D0CDF81C9010260DF1DE
:109460002307994607E001360122394609A804F08E
:1094700025FEB14517D023681B6A9D4241D20123C6
:10948000CDE9017300962B46002241462046FFF7A6
:109490007FFD0028E7D0DDF81C9010F1340F1AD0C2
:1094A00011B0BDE8F08FDDF81C90099B9BB99AE8DC
:1094B0000F000BF0010610AF07EB860C069F10267D
:1094C000FE603E467D601C365CF8185CBD6086E838
:1094D0000F0001230593BBF1020F0FD1059B002B59
:1094E00014BF00206FF0330011B0BDE8F08F069A72
:1094F0000C9BD2699B1A002B98DAECE74FF0020B19
:109500007DE7034B034A044812210CF001F800BF29
:10951000EC8B0300188E03000C8C030043680133AE
:1095200037D02DE9F0438368013383B0044628D057
:1095300015460E464FF000084FF001096A462946CD
:10954000CDE90089FFF74AFFE0B905F124086B6A0D
:10955000591C16D0AF6A7A1C13D0D6F800C09C45AF
:1095600013D0D6F804E0BE450FD0734542462946D5
:1095700020460AD0BC4508D0FFF730FF0028E6D0CF
:1095800000E0002003B0BDE8F083012003B0BDE897
:10959000F0830020704700BF2DE9F041D1F820C0D2
:1095A0000C46C9682CF00043043B01F10C069E42B6
:1095B00084B0054617461FD904F12408102612E08E
:1095C000424621462846FFF709FF90B9D4F820C04B
:1095D000A169E6602CF00043043B14311B2BA16110
:1095E0004FF0100108D8BCF1000FE9DB39606FF0D3
:1095F000010004B0BDE8F0812A46636852F8140BFC
:10960000066AB34207F104001AD20C26CDE9001015
:109610000296114628460022FFF7BAFC0028E8D13E
:109620007B79BA79FD79A16904331344E2683A6021
:109630002B441A440B44E260A36104B0BDE8F081FE
:10964000024B034A034812210BF062FFEC8B03002C
:10965000188E03000C8C0300F0B593B000260D4665
:10966000012707A96A46CDE900670446FFF7B6FE61
:10967000064610B121E0831C22D1109B01331CD07F
:10968000119B013319D010AA07A92046FFF7A6FEA7
:10969000B0B903AA07A92046FFF77EFF0028EAD148
:1096A0009DF91030002B4FF00802294605A8F0DB89
:1096B0000BF0BAFF0028ECD10126304613B0F0BD04
:1096C0000646304613B0F0BD2DE9F047164600249B
:1096D0000122C6E90942824688461D4606F1240950
:1096E0004A4631465046FFF779FE074668B92A4692
:1096F00031465046FFF750FF50B1831C1FD1736AAB
:10970000013302D0B36A0133EAD13846BDE8F087AD
:109710002C7904F07004202CE9D1AB68D8F8002033
:10972000934208D0E868D8F80410884203D08B42EE
:1097300001D08242DBD101273846BDE8F0870746D9
:10974000E3E700BF2DE9F04F2DED028B8DB0904681
:109750001C46099340F622032268C8F80430089298
:10976000D0E90123724EC8F8082082468946C8F81D
:109770000C3000F1140B089D314628460CF0B9FE60
:109780002B46034404463146184605930CF071FEFF
:109790000128049000F0B080022804D1059B1B78BA
:1097A0002E2B00F0B280DDE90423134408931F46FA
:1097B0000124314638460CF09CFE074438463146B9
:1097C0000CF057FE78B1022802D001340744F0E7CC
:1097D0003B782E2BF9D17B782E2BF6D1013CF5D19D
:1097E000BB1C0893C7E7059C207800285FD0099B25
:1097F0001C6098F80430222B40F08D8008F108039B
:109800001A464946504608EE103AFFF7E7FD002891
:109810004DD1049B013B23440793424649465046A1
:10982000FFF7BAFE002842D198F8042002F07F0327
:10983000112B01D0222BF0D198F8073004998B42DC
:10984000EBD1D8F8003098F8051098F80650D9F800
:10985000047004330B441D44049BA3B3059BCDF853
:1098600018800135DDF81C80ED1A5C1E07E014F845
:10987000012F9DF82F309A421ED144451FD0DAF8AF
:1098800000301A6A974205EB040347D20122029284
:109890000DF12F02CDE9003259463B4600225046D9
:1098A000FFF776FB0028E2D0DDF8188009DA0DB06A
:1098B000BDEC028BBDE8F08FDDF81880ADE7DDF878
:1098C000188098F8042013067FF555AFDAF80430B5
:1098D00001330CD0DAF80830013308D018EE101A32
:1098E0005046FFF7B9FE00281ED198F8042002F078
:1098F0007F0288F804203EE72B5D2E2B7FF453AFC8
:10990000DDE904231344089335E7059B5B782E2B90
:109910007FF449AFF4E76FF01300C8E7054B064A40
:10992000064812210BF0F4FDC1DB6FF00100BEE729
:10993000CC8C0300EC8B0300188E03000C8C03000E
:109940002DE9F04F8B469DB00BF1040304930BF10E
:109950000C03CDE9053B016B04464FF001080025DF
:10996000D4E90D3010E05A09E66B01385F1CA063A2
:10997000676356F822C003F01F0208FA02F212EAE7
:109980000C0F00F027813B469942ECD1002800F0F3
:10999000F2812268E36AD2E908621944904228BF42
:1099A0001046B1FBF6F306FB13112063E162E06B96
:1099B0006563D20800210BF06DFE6368013300F08F
:1099C0005781A368013300F0538100220123002551
:1099D000CDE9082304F1140701222E46D4F800C073
:1099E000E16ADCF82030206B591A0E44B6FBF3F51F
:1099F00003FB1565854210D26909E26B05F01F056E
:109A000052F8213008FA05F51D4342F82150DCF8E0
:109A10002030E16A099A206B591A0A44B2FBF3F12B
:109A200003FB112383420AD25809E16B03F01F03A1
:109A300051F8202008FA03F3134341F8203008AA14
:109A400011A92046FFF7CAFC002840F00E810C2522
:109A5000149A24E02068129B006A834280F01A82E4
:109A60000EA9CDE900210295002239462046FFF7D4
:109A70008FFA002840F0F9809DF839209DF83A309F
:109A80009DF83B60149904321A449DF838303244F2
:109A900003F070030A44102B149200F0EB80199B22
:109AA00023F00043043B02F10C009842D2D9DDE9D7
:109AB0001A62701CCDE9086201D0511C8ED1D4F815
:109AC0000C904D46B9F1000F00F0DE81EB69DA032E
:109AD00040F156816F69002F00F05281D4F800A048
:109AE000DAF81C60013F083EB742C0F0CF81B7FBF7
:109AF000F6F001380BF0F2FC0230A7EB8002B2FB6B
:109B0000F6F6D4F830E0E16A2B69079505F12C00F0
:109B10000546DAF82020704604F114098E46014605
:109B20009818A0EB0E0EBEFBF2F002FB10E28A4288
:109B30000AD25709E06B02F01F0250F8271008FA0A
:109B400002F20A4340F82720002E00F01781DAF8CD
:109B5000202006F00107C7F1020A93424FEA8A006B
:109B600080F098810BA90022CDE9011000924946AE
:109B70002A462046FFF70CFA002876D10AF1FF3C6E
:109B8000D4F800A013E0BBFBF2F302FB13B38B424B
:109B90004FF0010014D24FEA531EE16B03F01F0394
:109BA00051F82E2000FA03F3134341F82E30D4F875
:109BB0002CE0DAF820200B9B216BA2EB0E0B9B44D0
:109BC0006045E0DB1CAB03EB8C0C023F5CF8443CD3
:109BD0003E44A5E72068E26A016A1344B3FBF1F250
:109BE00001FB1233049A42F8043BD4E90C13994266
:109BF000049207D10FE0A26B0133013A8B42C4E912
:109C00000D3208D05D0903F01F0256F8255008FAFE
:109C100002F22A42EFD1DDE9043293427FF49FAE93
:109C2000DDF818B0006ADBF8043083420BF11C0247
:109C300004F1140180F02E810425019200222046B7
:109C400002950092FFF7A4F9002840F08B80DBF822
:109C50001C304FF0FF32CBE90922142001331021D0
:109C6000CBE90730CBF80C1000201DB0BDE8F08F19
:109C7000216B75E6109B002B3FF411AFD4F800A0C8
:109C8000DAF81C6003F1FF3BA6F10809CB4570D35D
:109C9000BBFBF9F001380BF021FC861CABEB860610
:109CA000B6FBF9F60F9BE16ADAF82020D4F830E031
:109CB0009818401AB0FBF2F102FB110272450BD268
:109CC0004FEA521CE16B02F01F0251F82C0008FA17
:109CD00002F2024341F82C20002E3FF4B9AEDAF82C
:109CE000202006F00109C9F1020A93424FEA8A00D6
:109CF00080F0D0800BA90022CDE9011000923946F6
:109D00002046FFF745F90028AFD10AF1FF3CD4F80F
:109D100000A013E0BBFBF2F302FB13B373454FF05B
:109D2000010014D24FEA531EE16B03F01F0351F8F8
:109D30002E2000FA03F3134341F82E30E16ADAF8DB
:109D400020200B9BD4F830E0A2EB010B9B44604534
:109D5000E0DB1CAB03EB8C0CA9F102095CF8443C82
:109D60004E44A5E710F1340F3FF471AF1DB0BDE8CC
:109D7000F08F064696E76FF01B0076E7079DEB69CC
:109D80009B037DD52F6A002F7AD0D4F800A0DAF893
:109D90001C60013F083EB7427AD3B7FBF6F00138AA
:109DA0000BF09CFB0230A7EB8003B3FBF6F6D4F874
:109DB00030E0E16A6B6A079505F12C000546DAF898
:109DC0002020704604F114098E4601469818A0EB35
:109DD0000E0EBEFBF2F002FB10E28A420AD25709D5
:109DE000E06B02F01F0250F8271008FA02F20A4353
:109DF00040F82720002E42D0DAF8202006F0010794
:109E0000C7F1020A93424FEA8A0043D20BA900220B
:109E1000CDE90110009249462A462046FFF7B8F8DE
:109E200000287FF422AF0AF1FF3CD4F800A013E031
:109E3000BBFBF2F302FB13B38B424FF0010014D2D1
:109E40004FEA531EE16B03F01F0351F82E2000FA76
:109E500003F3134341F82E30D4F82CE0DAF8202035
:109E60000B9B216BA2EB0E0B9B446045E0DB1CAB14
:109E700003EB8C0C023F5CF8443C3E44A6E7079D94
:109E80002D68002D7FF422AE216B68E5002638E6B0
:109E900000268CE7024B034A034812210BF038FBE3
:109EA000EC8B0300188E03000C8C03002DE9F04F9F
:109EB0002DED028B9BB0012504460491A9464FF07D
:109EC0000008D4E90D31D4F830C00FE05A09E76B2F
:109ED0000139581CA163606357F8226003F01F0228
:109EE00005FA02F2324200F02A8103469C45EDD188
:109EF000002900F052822368E66AD3E90802B444DC
:109F0000914228BF1146BCFBF0F300FB13C3216351
:109F1000E362E06BC4F83480D20800210BF0BAFB96
:109F200063680133CDD0A3680133CAD00022012376
:109F3000CDE906230122002004F114079646226889
:109F4000E36A116A266BCB1A03EB000CBCFBF1F041
:109F500001FB10C0864210D94609E16B00F01F00DA
:109F600051F8263005FA00F0184341F82600D4E9EC
:109F70000B36116ADDF81CE0CB1A7344B3FBF1F227
:109F800001FB1233B3420AD25809E16B03F01F03FD
:109F900051F8202005FA03F3134341F8203006AAB4
:109FA0000FA92046FFF71AFA002840F0E9804FF089
:109FB0000C08129A0CAE23E02168109B096A8B42B0
:109FC00080F0F5810092CDE90168002239462046F3
:109FD000FEF7DEFF002840F0D3809DF831209DF889
:109FE00032109DF833C0129B04320A449DF83010A1
:109FF00062441A4401F07003102B129200F0C580E5
:10A00000179B23F00043043B02F10C019942D3D982
:10A01000DDE9180E411CCDE9060E02D0BEF1FF3F6E
:10A020008DD1D4F80C804646B8F1000F3FF447AF0D
:10A03000F369DA0340F128817769002F00F0248169
:10A04000D4F800A0DAF81C30013FA3F10808474516
:10A05000C0F0A881B7FBF8F001380BF03FFA0230EE
:10A06000A7EB8007B7FBF8F704F11400E16AD4F816
:10A0700030C0DAF8202033690596834606F12C00BB
:10A0800008EE100A0E4661469818A0EB060EBEFBBD
:10A09000F2F002FB10E28A420BD2E06B4FEA521C54
:10A0A00002F01F0150F82C2005FA01F10A4340F894
:10A0B0002C20002F00F0E680DAF8202007F00108BD
:10A0C000C8F1020A93424FEA8A0080F0708109A920
:10A0D0000022CDE901100092594618EE102A2046C0
:10A0E000FEF756FF00284BD10AF1FF3CD4F800A040
:10A0F00012E0BEFBF2F302FB13E38B424FF00100D0
:10A1000012D25E09E16B03F01F0351F8262009FA11
:10A1100003F3134341F82630E66ADAF82020099B5E
:10A12000216BA2EB060E9E446045E2DB1AAB03EB0B
:10A130008C0CA8F102085CF8443C4744A4E7216871
:10A14000E26A096A1344B3FBF1F201FB1233049A89
:10A150001360D4E90C03834211D0012506E0A26B01
:10A160000133013A8342C4E90D3208D0590903F0A2
:10A170001F0257F8211005FA02F20A42EFD100201F
:10A180001BB0BDEC028BBDE8F08F0E9E002E3FF49D
:10A1900011AFD4F800A0DAF81C20013EA2F1080BA0
:10A1A0005E450AD3B6FBFBF001380BF097F902309D
:10A1B000A6EB8003B3FBFBF31846E16AD4F830C08A
:10A1C0000D9BDAF8202008EE107A8E46074661468D
:10A1D0009818A0EB0E0EBEFBF2F002FB10E28A42D2
:10A1E0000AD25609E06B02F01F0250F8261005FA59
:10A1F00002F20A4340F82620002F00F0D580DAF85A
:10A20000202007F00106C6F1020A93424FEA8A00B5
:10A2100080F0CD8009A90022CDE90110009218EE4E
:10A22000101A2046FEF7B4FE0028A9D10AF1FF3C1F
:10A23000D4F800A013E0BBFBF2F302FB13B38B4294
:10A240004FF0010014D24FEA531EE16B03F01F03DD
:10A2500051F82E2009FA03F3134341F82E30D4F8B5
:10A260002CE0DAF82020099B216BA2EB0E0B9B441B
:10A270006045E0DB1AAB03EB8C0C023E5CF8443C1F
:10A280003744A5E7059EF3699B0340F18180376A57
:10A29000002F7DD0D4F800A0DAF81C20013FA2F1F5
:10A2A000080847457CD3B7FBF8F001380BF016F9E6
:10A2B0000230A7EB8007B7FBF8F704F11400E16A5E
:10A2C000D4F830C0DAF82020736A0596834606F188
:10A2D0002C0008EE100A0E4661469818A0EB060EF8
:10A2E000BEFBF2F002FB10E28A420BD2E06B4FEAB7
:10A2F000521C02F01F0150F82C2005FA01F10A430C
:10A3000040F82C20002F42D0DAF8202007F0010876
:10A31000C8F1020A93424FEA8A0048D209A90022F2
:10A32000CDE901100092594618EE102A2046FEF79A
:10A330002FFE00287FF424AF0AF1FF3CD4F800A0E0
:10A3400012E0BEFBF2F302FB13E38B424FF001007D
:10A3500012D25E09E16B03F01F0351F8262009FABF
:10A3600003F3134341F82630E66ADAF82020099B0C
:10A37000216BA2EB060E9E446045E2DB1AAB03EBB9
:10A380008C0CA8F102085CF8443C4744A5E7059E04
:10A390003668002E7FF44CAE91E56FF01B00EFE6BF
:10A3A00000278AE700275FE618EE107A01E6034BE4
:10A3B000034A044812210BF0ABF800BFEC8B0300FA
:10A3C000188E03000C8C03002DE9F04F044687B073
:10A3D0000F4600F1140905A92046FFF767FD064660
:10A3E00040B920680599C3689847064630B110F116
:10A3F000340FF0D0304607B0BDE8F08FBB6A83B3AE
:10A4000007F12C0A35460DF1130804F1200B13E077
:10A410002268059B126A934247D20122CDE901824C
:10A4200000954A4659462046FEF714FF002831D1D0
:10A43000BB6A0135AB4214D922687B6A126A934227
:10A440002DD20122CDE9018200955246494620468F
:10A45000FEF79EFD0028DBD00646304607B0BDE87B
:10A46000F08F2368A16A9A69786B0BF0EBF8D4E956
:10A4700008122368A06AC7E90B12FF219A690BF042
:10A4800009F9059B4FF0FF32304622627B6207B02C
:10A49000BDE8F08F10F1340F9DD00646DDE7064B86
:10A4A000064A074812210BF033F8034B054A0448CB
:10A4B0009C210BF02DF800BFEC8B0300188E0300DD
:10A4C0000C8C0300288E03002DE9F04F2DED028B3C
:10A4D000C9B004462C2200211CA80BF0DBF84FF079
:10A4E0000043282227A8002124930BF0D3F82368E7
:10A4F0001B6A01223192002B00F0C98100274FF026
:10A500000C09319B013300F0B18130AA27A9204604
:10A51000FEF764FF0546002840F00C81249B002BC9
:10A52000C0F20E816368013300F04E81A3680133ED
:10A5300000F04A8132AE32460CAB25A92046FFF727
:10A54000C3F80028C0F2F58000F03E810E9B259AEA
:10A550000F982699934200F090818B4200F09381EE
:10A56000DDE91D51239A26902068259301320023AE
:10A57000CDE91D150B9505932392C3680A91984761
:10A580004FF0FF380546F0B115F1340F40F0D2809E
:10A590000A9BC4F82080012B40F279810B9B012B90
:10A5A00040F275811DA92046FFF780FC0546002872
:10A5B00040F0C08020681D9901230593C368984727
:10A5C00005460028E0D123AF0DF1500AA146102224
:10A5D00039465046CDF8508003F070FD59F8202BD5
:10A5E0001D9B126A934280F015821026CDE9005718
:10A5F0002A46029649462046FEF72CFE05460028CC
:10A60000C2D1249B23F00043043B102B32D904F128
:10A61000140B3DAF22680B9B126A934280F0F481C9
:10A620000122CDE901720096002259462046FEF72C
:10A63000AFFC054600287DD101223946504603F083
:10A640003DFD22681D9B126A934280F0E381012246
:10A65000CDE9017200962A4649462046FEF7FAFDEA
:10A660000546002890D1249B23F000430136043B8B
:10A670009E42CFD322681D9B126A934280F0CA810A
:10A6800004220292CDE9006A494600222046FEF7E4
:10A69000E1FD054600287FF477AF216AC4F81480F5
:10A6A0004A1C12D02068A36A826900928568626A97
:10A6B000A847054600287FF467AF2368A06A9A6917
:10A6C000FF210AF0E7FFC4F820802068036998475B
:10A6D000054600287FF458AF249EDDF874B0CDF80D
:10A6E000F48026F0004604F11403043E08EE103A0C
:10A6F00000F0968107460DF1400908E0013701227C
:10A7000049463DA803F0DAFCBE4240F28981236845
:10A710001B6A9B4580F078810123CDE9019318EEF7
:10A72000101A00975B4600222046FEF731FC0028F5
:10A73000E4D00546284649B0BDEC028BBDE8F08F59
:10A7400032AE4FF00008324627A92046FEF724FF1C
:10A75000F0B1831CEDD10DF19C0CBCE80F001CAED8
:10A760000FC6BCE80F000FC69CE8070086E807008C
:10A7700023681B6A01379F4280F08980309B013338
:10A780007FF4BFAE284649B0BDEC028BBDE8F08F28
:10A790009DF9CC309DF8CC20002BD4DA63680133CE
:10A7A00041D0A36801333ED034A92046FEF754FFC0
:10A7B0000028BEDB35D0324627A9204601F0C8F973
:10A7C0000028C0D00546B5E7DDE93050DDE91D21A0
:10A7D000239B1D91CDE925500133239308911E92AF
:10A7E00009924FF0000801262068C3689847054683
:10A7F00000284FD015F1340F9CD1089B4FF0FF3249
:10A80000012B226243D9099B012B40D91DA9204667
:10A81000FFF74CFB054600288CD11D994FF001082D
:10A82000E2E79DF8CC20DDF8C8E09DF8CFC0CDF878
:10A83000F89002F07F020EF10C0033A9CDE93F1928
:10A840008DF8CC20419001233DAA27A92046CDF8C0
:10A850000C81CDF8F4E0CDF808C1CDF810C100F0BE
:10A86000F9F900283FF46FAF054663E70025284655
:10A8700049B0BDEC028BBDE8F08F88423FF461AF78
:10A880008B427FF46DAE82427FF46AAE59E76FF07F
:10A8900033054FE723AFA2464FF0FF33102239466E
:10A8A00007A8079303F00AFC5AF8202B1D9B126A95
:10A8B000934280F0AF804FF01009CDE900572A464F
:10A8C000CDF8089051462046FEF7C4FC0546002806
:10A8D00090D1249B23F00043043B102B34D904F186
:10A8E000140B10AF2268099B126A934280F08C808F
:10A8F000CDE90176CDF80090002259462046FEF7BA
:10A9000047FB054600287FF415AF0122394607A80A
:10A9100003F0D4FB22681D9B126A93427AD22A4626
:10A92000CDE90176CDF8009051462046FEF792FC25
:10A93000054600287FF45EAF249B23F0004309F115
:10A940000109043B9945CDD322681D9B126A9342AD
:10A9500060D2042207A9CDE900910292514600225B
:10A960002046FEF777FC054600287FF443AF216AB6
:10A970004FF0FF37B942676111D02068A36A82693E
:10A9800000928568626AA847054600287FF432AFC6
:10A990002368A06A9A69FF210AF07CFE276220687A
:10A9A00003699847054600287FF424AF249FDDF80B
:10A9B00074B027F000474FF0FF3204F11403043F56
:10A9C00008EE103A109245D081460DF1F40A08E0E5
:10A9D00009F101090122514610A803F06FFB4F4510
:10A9E00038D923681B6A9B450ED2CDE901A618EE23
:10A9F000101ACDF800905B4600222046FEF7C8FAF8
:10AA00000028E5D0054695E68E4B8F4A8F481221E7
:10AA10000AF07EFD8B4B8E4A8C489C210AF078FD13
:10AA20003D9A149B9A427FF4B3AD059B002B30D125
:10AA30002369002B3FF47EAE5C681D9A944271D06E
:10AA400099681E9881426DD084426BD08A4269D049
:10AA50001B68EEE7109A079B9A427FF4CEAEB8F1DE
:10AA6000000F40F082802369002B3FF463AE5C68E6
:10AA70001D9A944200F0C48099681E98814200F0AB
:10AA8000BF80844200F0BC808A4200F0B9801B681D
:10AA9000EAE7636801334ED0A36801333DAE0AAFE5
:10AAA0004BD03246394610AB2046FEF70DFE00284B
:10AAB000FFF63FAE41D0DDE91D03109F14973146EC
:10AAC0000C370C2612909DF847001897139311AF7E
:10AAD00015961796199000261B9052460123204682
:10AAE00016971A9600F0B6F800287FF422AE0A985E
:10AAF000636898421AD00B9AA1688A4216D088429D
:10AB000014D0934212D00122013384F840208FD018
:10AB1000A36801338CD02046FFF7D6FC002887D0ED
:10AB2000054607E65A601E9A9A6091E7DDE91D32F4
:10AB3000C4E90132E7E73DAE0AAF39463246204666
:10AB4000FEF7ECFC0028FFF6F4AD3FF471AF3146A0
:10AB5000DDE91D60002347901A462046469600F026
:10AB600079F800283FF464AFDAE76368013350D026
:10AB7000A36801333DAE4DD0324610AB08A9204644
:10AB8000FEF7A2FD0028FFF6D4AD43D0DDE91D029B
:10AB9000109B14930C33189312900C2311A89DF85A
:10ABA0004770139231461593002617931690012390
:10ABB00014AA204619971B971A9600F04BF8002804
:10ABC0007FF4B7AD0898636898421DD0099AA168D0
:10ABD0008A4219D0884217D0934215D001220133FE
:10ABE00084F840203FF43FAFA36801333FF43BAF0C
:10ABF0002046FFF769FC00283FF435AF054699E58C
:10AC00005A601E9A9A6042E7DDE91D32C4E90132BA
:10AC1000E4E73DAE08A932462046FEF77FFC002857
:10AC2000FFF687AD3FF41FAF3146DDE91D6000231D
:10AC300047901A462046469600F00CF800283FF44C
:10AC400012AFDBE7EC8B0300188E03000C8C0300C3
:10AC5000288E03002DE9F04F2DED028BCE690D46B5
:10AC6000D1E90141A5B0013690462A1D69608246AE
:10AC7000EE61AC600892059383B11E46D8F80400DB
:10AC8000D8F80C302A6A1B1A022E1A4405D1D8F8BB
:10AC90001C70D8F814603A44921B2A62DAF800005B
:10ACA000CDF818800023CDE90B140993C3689847A9
:10ACB0000446E0B114F1340F3DD10B9B4FF0FF324D
:10ACC000012BCAF8202034D90C9B012B31D90899CB
:10ACD0005046FFF7EBF8044668BBDAF800006968F5
:10ACE00001230993C368984704460028E2D105F17F
:10ACF0001C07D0464FF0FF331022394611A811939C
:10AD000003F0DCF958F8202B6B68126A934280F04C
:10AD10000D811026CDE90047224602964146504655
:10AD2000FEF798FA834660B110F1340FC5D004469F
:10AD300001E06FF03304204625B0BDEC028BBDE886
:10AD4000F08F2B6A23F00043043BB3426BD90AF126
:10AD5000140308EE103A37460DF1640934E0DAF8CE
:10AD600000200C9B126A934280F0E6800122CDE91C
:10AD7000019218EE101A009700225046FEF708F9CB
:10AD800004460028D7D10122494611A803F096F9BC
:10AD9000DAF800206B68126A934280F0C7800122C3
:10ADA000CDE901920096224641465046FEF752FAFE
:10ADB000044600287FF47EAF013701362B6A23F06A
:10ADC0000043043B9E422ED2059B5B45C7DD069A9D
:10ADD0004FEA0B1302EB0B11D3580791BB42BED1C4
:10ADE0000C4611A8D1E9021203F068F9DAF8002044
:10ADF0006B68106AE168A268834280F09780CDE9B1
:10AE000001210096002241465046FEF723FA0446EF
:10AE100000287FF44FAF079B5A68DB680BF1010BEA
:10AE200017441E44CAE7DAF800206B68126A93429E
:10AE30007CD2042211A9CDE9006102924146002290
:10AE40005046FEF707FA044600287FF433AFDAF8DD
:10AE500020104FF0FF339942CAF8143019D0DAF8B5
:10AE60000000DAF82830826900928468DAF8242039
:10AE7000A047044600287FF41DAFDAF80030DAF866
:10AE800028009A69FF210AF005FC4FF0FF33CAF849
:10AE90002030DAF8000003699847044600287FF460
:10AEA00009AF2B6AD5F8048023F000434FF0FF323E
:10AEB000B3F1040919920AF1140B1DD007460DAE27
:10AEC00007E001370122314619A803F0F7F8B94528
:10AED00012D0DAF800301B6A98452DD20123CDE953
:10AEE000016300974346002259465046FEF750F84A
:10AEF0000028E6D004461EE7199A119B9A427FF477
:10AF0000DCAE099B13BBDAF81030002B3FF413AF13
:10AF10005E686A68964215D09968A868814211D027
:10AF200086420FD08A420DD01B68EEE73D4B3E4A69
:10AF30003E489C210AF0ECFA3A4B3D4A3B4812212C
:10AF40000AF0E6FA5A60AA689A60EDE7DAF8043087
:10AF5000013347D0DAF80830013319AE0BAF43D0D4
:10AF6000324639460DAB5046FEF7AEFB0028C1DB3A
:10AF70003AD0D5E901030D9F119731460C370C26C5
:10AF80000F909DF83B00159710930EAF12961496F4
:10AF900016900026189011AA012350461397179671
:10AFA000FFF758FE0028A5D10B98DAF80430984234
:10AFB00031D00C9ADAF808108A422CD088422AD074
:10AFC000934228D0012201338AF840209BD0DAF83E
:10AFD0000830013397D05046FFF776FA002892D018
:10AFE0000446A8E619AE0BAF394632465046FEF786
:10AFF00095FA0028FFF67EAF85D03146D5E901608D
:10B00000002323901A4650462296FFF723FE00287D
:10B010003FF479AFE4E76B68CAF80430AA68CAF86D
:10B020000820CFE7EC8B0300288E03000C8C030074
:10B03000188E03002DE9F04F2DED028B0D46BDB0AB
:10B04000824616461F4601F1240809E0002B52DA19
:10B05000424629465046FEF7C1F9002840F00881D3
:10B060007479B179F279DAF800002B6A04340C446F
:10B070001444C1691C448C42E8D8B4461E1F4CF8E5
:10B08000046BE96924974C1C6F68A96825920C33FE
:10B0900013442B62C5E901170C23002221932B1DB9
:10B0A000CDF880C01E96229613971291EC611F92E4
:10B0B000239207920693C36898470446002800F03D
:10B0C000DE8014F1340F65D1129B4FF0FF32012B5B
:10B0D000CAF820205CD9139B012B59D906995046F8
:10B0E000FEF7E4FE0446002854D101236968DAF82B
:10B0F00000000793DFE7AC46BCE80F0026AC0FC4A6
:10B10000BCE80F000FC49CE8070084E8070029464C
:10B110005046FEF715FC044600283BD1DDE92F120E
:10B120002B6A69623046191FAA6240F8041BF6793F
:10B130001794CDE91B473344069416916C681A9115
:10B14000A968EA691D960C332B62C5E901140C232A
:10B15000013219932B1D18900F940E91EA610793F9
:10B160004FF00109DAF80000C36898470446002848
:10B1700000F0AA8014F1340F0CD10E9B4FF0FF3277
:10B18000012BCAF8202003D90F9B012B00F2BF80AE
:10B190006FF0330420463DB0BDEC028BBDE8F08F6C
:10B1A000DAF800206B68126A934280F04C82042225
:10B1B0000BA9CDE900610292414600225046FEF7FC
:10B1C00049F804460028D5D1DAF820104FF0FF33B3
:10B1D0009942CAF8143018D0DAF80000DAF82830AA
:10B1E000826900928468DAF82420A0470446002887
:10B1F000C0D1DAF80030DAF828009A69FF210AF0A5
:10B2000049FA4FF0FF33CAF82030DAF8000003693A
:10B21000984704460028ADD12E6A26F000464FF02C
:10B22000FF33321F0C930AF1140B6B68059200F088
:10B23000EA81074631AE1C4609E0012231460CA8DE
:10B2400002F03CFF059B0137BB4200F0DC81DAF8DD
:10B2500000301B6A9C4280F0FC81CDE901690097B7
:10B260002346002259465046FDF792FE0028E4D0BE
:10B27000044620463DB0BDEC028BBDE8F08F05F1E1
:10B280001C07D0464FF0FF331022394609A8099316
:10B2900002F014FF58F8202B6B68126A934280F07A
:10B2A000D2811026CDE900472246029641465046FB
:10B2B000FDF7D0FF8346002800F0AA8010F1340F7C
:10B2C0003FF402AF5C4665E705F11C07D0464FF03E
:10B2D000FF33102239460BA80B9302F0EFFE58F80B
:10B2E000202B6B68126A934280F0AD811026CDE965
:10B2F00000472246029641465046FDF7ABFF834683
:10B3000088B110F1340F3FF438AF5C4642E707993B
:10B310005046FEF7CBFD044600287FF43BAF0123E7
:10B32000696806931EE72B6A23F00043043BB3428F
:10B330007FF636AF0AF1140308EE103A374638E0CC
:10B34000DAF800200F9B126A934280F082810CAAE7
:10B35000CDE9007218EE101ACDF808900022504680
:10B36000FDF716FE044600287FF414AF01220CA955
:10B370000BA802F0A3FEDAF800206B68126A934271
:10B3800080F061810CAACDE90062CDF808902246D8
:10B3900041465046FDF75EFF044600287FF4EAAEC2
:10B3A000013701362B6A23F00043043BB3427FF69A
:10B3B000F7AEBBF1010FC3DC16AA4FEA0B1302EB89
:10B3C0000B11D3580591BB42BAD10C460BA8D1E959
:10B3D000021202F073FEDAF800206B68106AE1686E
:10B3E000A268834280F02F81CDE9012100960022DE
:10B3F00041465046FDF72EFF044600287FF4BAAEC2
:10B40000059B5A68DB680BF1010B17441E44C9E722
:10B410002B6A23F00043043BB3426CD90AF11403B6
:10B4200008EE103A37460DF1280935E0DAF8002029
:10B43000139B126A934280F00C810122CDE90192A4
:10B4400018EE101A009700225046FDF7A1FD0446A1
:10B4500000287FF49FAE0122494609A802F02EFE83
:10B46000DAF800206B68126A934280F0EC800122C7
:10B47000CDE901920096224641465046FDF7EAFE8C
:10B48000044600287FF41DAE013701362B6A23F0F5
:10B490000043043BB3422ED9BBF1010FC6DC1EAA08
:10B4A0004FEA0B1302EB0B11D3580591BB42BDD1F0
:10B4B0000C4609A8D1E9021202F000FEDAF80020D9
:10B4C0006B68106AE168A268834280F0BC80CDE9B5
:10B4D00001210096002241465046FDF7BBFE04467E
:10B4E00000287FF4EEAD059B5A68DB680BF1010B79
:10B4F00017441E44CAE7DAF800206B68126A9342C8
:10B5000080F0A180042209A9CDE9006102924146A0
:10B5100000225046FDF79EFE044600287FF4D1AD80
:10B52000DAF820104FF0FF339942CAF8143019D0DE
:10B53000DAF80000DAF82830826900928468DAF8D4
:10B540002420A047044600287FF4BBADDAF8003081
:10B55000DAF828009A69FF210AF09CF84FF0FF33CF
:10B56000CAF82030DAF8000003699847044600283A
:10B570007FF4A7AD2A6AD5F804B022F000424FF05C
:10B58000FF33171F0A930AF114091ED006460DF166
:10B59000C40807E00136012241460AA802F08EFDE8
:10B5A000B74212D0DAF800301B6A9B4551D2012312
:10B5B000CDE9018300965B46002249465046FDF7DF
:10B5C000E7FC0028E6D0044653E6DDE909329A425A
:10B5D0007FF47AAD079B002B41D1DAF81030002BB5
:10B5E0003FF4D8AD5E686A68964200F08980996839
:10B5F000A868814200F08480864200F081808A42FF
:10B600007ED01B68EBE7DDE90B329A427FF4B5ADE3
:10B61000069B002B40F06E81DAF81040002C00F001
:10B62000948060686B68984200F0B781A268A9684E
:10B630008A4200F0B281884200F0AF81934200F06C
:10B64000AC812468EAE7A74BA74AA8489C2109F0E7
:10B650005FFFA44BA64AA548122109F059FFDAF86A
:10B660000430013357D0DAF80830013331AE12AF6D
:10B6700053D03246394616AB5046FEF725F800281F
:10B68000FFF6F6AD49D0D5E90102169B26930C339F
:10B690002A9318900C2317A89DF85F7019923146D1
:10B6A0002793002629932890012326AA50462B97FA
:10B6B0002D972C96FFF7CEFA00287FF4D9AD12987B
:10B6C000DAF8043098421FD0139ADAF808108A4248
:10B6D0001AD0884218D0934216D0012201338AF83A
:10B6E00040203FF47AAFDAF8083001333FF475AF09
:10B6F0005046FEF7E9FE00283FF46FAF0446B8E578
:10B700005A60AA689A607CE76B68CAF80430AA6835
:10B71000CAF80820E1E731AE12AF3946324650464A
:10B72000FDF7FCFE0028FFF6A3AD3FF456AF31460F
:10B73000D5E9016000233B901A4650463A96FFF740
:10B7400089FA00283FF449AFD8E7D5E90116DDE9C9
:10B750002D3227982F9128991190CDE92710DAF8EA
:10B760000000309642F0004201332D932E92C368C0
:10B770001091059498474FF0FF370126C1460446C3
:10B78000F8B114F1340F7FF405AD109BCAF82070A6
:10B79000012B7FF6FDAC119B012B7FF6F9AC27A99D
:10B7A0005046FEF783FB044600287FF4F3ACDAF83A
:10B7B0000000279901230593C36898470446002891
:10B7C000DFD10DF1B408102241460DA80D9702F00B
:10B7D00075FCDAF80020279B126A9342BFF433AF5E
:10B7E0001025CDE900482246029549465046FDF70E
:10B7F00031FD04460028C4D12E9B23F00043043BB6
:10B80000102B88BF0DF1C40830D9DAF80020119B45
:10B81000126A9342BFF41DAFCDE901860095002264
:10B8200059465046FDF7B4FB044600287FF4B2ACFD
:10B83000012241460DA802F041FCDAF80020279BC6
:10B84000126A9342BFF4FFAE2246CDE9018600950D
:10B8500049465046FDF7FEFC0446002891D12E9B38
:10B8600023F000430135043B9D42CED3DAF800209B
:10B87000279B126A9342BFF4E6AE04220DA9CDE9DC
:10B8800000510292494600225046FDF7E3FC04466F
:10B8900000287FF476AFDAF82010CAF814704B1C39
:10B8A00017D0DAF80000DAF828308269009284684C
:10B8B000DAF82420A047044600287FF462AFDAF8C3
:10B8C0000030DAF828009A69FF2109F0E3FECAF88F
:10B8D0002070DAF8000003699847002861D0044618
:10B8E0004FE700BFEC8B0300288E03000C8C030095
:10B8F000188E0300DAF80430013379D0DAF8083012
:10B90000013331AE0EAF75D03246394612AB5046D8
:10B91000FDF7DAFE041EFFF63DAC6BD0D5E901233E
:10B9200012981E900C30229014920C2013AA9DF8AD
:10B930004F40159331461F902190209200260123FD
:10B940001EAA5046239425942496FFF783F90446B3
:10B9500000287FF41FAC0E98DAF80430984263D0C8
:10B960000F9ADAF808108A425ED088425CD093427F
:10B970005AD0012201338AF840203FF44DAEDAF864
:10B98000083001333FF448AE5046FEF79DFD0446B3
:10B99000002C3FF441AEFFF7FDBB6360AB68A360D2
:10B9A0004FE62E9ADDF89C80319722F00042131F5B
:10B9B0001C4640D0054607E0013501221EA931A8EA
:10B9C00002F07CFBAC4236D0DAF800301B6A9845B6
:10B9D000BFF43FAE1EABCDE90053029643460022B2
:10B9E00059465046FDF7D4FA0028E5D0044640E415
:10B9F00031AE0EAF394632465046FDF78FFD041E7C
:10BA0000FFF6C8AB3FF408AED5E9014000233B90F8
:10BA100031461A4650463A94FFF71CF90446002C6A
:10BA20003FF4FAADFFF7B6BB6B68CAF80430AA68FA
:10BA3000CAF808209DE7319A0D9B9A427FF4A5AE83
:10BA4000059D95B9DAF81040002C3FF4A3AB60686F
:10BA5000279B984278D0A26828998A4274D088425D
:10BA600072D0934270D02468EEE7DAF804300133E4
:10BA70004BD0DAF80830013331AE10AD47D0324642
:10BA8000294612AB5046FDF71FFE041EFFF682AB9F
:10BA90003DD0129B1E93DDE927420C339DF84F00E9
:10BAA00022930C231494159200241F932193239026
:10BAB0002590314613AD01231EAA504624942095AB
:10BAC000FFF7C8F8044600287FF464AB1098DAF852
:10BAD0000430984233D0119ADAF808108A422ED0F6
